{
  "contractName": "SupplyChain",
  "abi": [
    {
      "constant": false,
      "inputs": [
        {
          "name": "account",
          "type": "address"
        }
      ],
      "name": "addConsumer",
      "outputs": [],
      "payable": false,
      "stateMutability": "nonpayable",
      "type": "function"
    },
    {
      "constant": true,
      "inputs": [
        {
          "name": "account",
          "type": "address"
        }
      ],
      "name": "isRetailer",
      "outputs": [
        {
          "name": "",
          "type": "bool"
        }
      ],
      "payable": false,
      "stateMutability": "view",
      "type": "function"
    },
    {
      "constant": false,
      "inputs": [],
      "name": "renounceConsumer",
      "outputs": [],
      "payable": false,
      "stateMutability": "nonpayable",
      "type": "function"
    },
    {
      "constant": true,
      "inputs": [
        {
          "name": "account",
          "type": "address"
        }
      ],
      "name": "isConsumer",
      "outputs": [
        {
          "name": "",
          "type": "bool"
        }
      ],
      "payable": false,
      "stateMutability": "view",
      "type": "function"
    },
    {
      "constant": false,
      "inputs": [
        {
          "name": "account",
          "type": "address"
        }
      ],
      "name": "addRetailer",
      "outputs": [],
      "payable": false,
      "stateMutability": "nonpayable",
      "type": "function"
    },
    {
      "constant": false,
      "inputs": [],
      "name": "renounceRetailer",
      "outputs": [],
      "payable": false,
      "stateMutability": "nonpayable",
      "type": "function"
    },
    {
      "inputs": [],
      "payable": true,
      "stateMutability": "payable",
      "type": "constructor"
    },
    {
      "anonymous": false,
      "inputs": [
        {
          "indexed": false,
          "name": "upc",
          "type": "uint256"
        }
      ],
      "name": "Harvested",
      "type": "event"
    },
    {
      "anonymous": false,
      "inputs": [
        {
          "indexed": false,
          "name": "upc",
          "type": "uint256"
        }
      ],
      "name": "Processed",
      "type": "event"
    },
    {
      "anonymous": false,
      "inputs": [
        {
          "indexed": false,
          "name": "upc",
          "type": "uint256"
        }
      ],
      "name": "Packed",
      "type": "event"
    },
    {
      "anonymous": false,
      "inputs": [
        {
          "indexed": false,
          "name": "upc",
          "type": "uint256"
        }
      ],
      "name": "ForSale",
      "type": "event"
    },
    {
      "anonymous": false,
      "inputs": [
        {
          "indexed": false,
          "name": "upc",
          "type": "uint256"
        }
      ],
      "name": "Sold",
      "type": "event"
    },
    {
      "anonymous": false,
      "inputs": [
        {
          "indexed": false,
          "name": "upc",
          "type": "uint256"
        }
      ],
      "name": "Shipped",
      "type": "event"
    },
    {
      "anonymous": false,
      "inputs": [
        {
          "indexed": false,
          "name": "upc",
          "type": "uint256"
        }
      ],
      "name": "Received",
      "type": "event"
    },
    {
      "anonymous": false,
      "inputs": [
        {
          "indexed": false,
          "name": "upc",
          "type": "uint256"
        }
      ],
      "name": "Purchased",
      "type": "event"
    },
    {
      "anonymous": false,
      "inputs": [
        {
          "indexed": true,
          "name": "account",
          "type": "address"
        }
      ],
      "name": "ConsumerAdded",
      "type": "event"
    },
    {
      "anonymous": false,
      "inputs": [
        {
          "indexed": true,
          "name": "account",
          "type": "address"
        }
      ],
      "name": "ConsumerRemoved",
      "type": "event"
    },
    {
      "anonymous": false,
      "inputs": [
        {
          "indexed": true,
          "name": "account",
          "type": "address"
        }
      ],
      "name": "RetailerAdded",
      "type": "event"
    },
    {
      "anonymous": false,
      "inputs": [
        {
          "indexed": true,
          "name": "account",
          "type": "address"
        }
      ],
      "name": "RetailerRemoved",
      "type": "event"
    },
    {
      "constant": false,
      "inputs": [],
      "name": "kill",
      "outputs": [],
      "payable": false,
      "stateMutability": "nonpayable",
      "type": "function"
    },
    {
      "constant": false,
      "inputs": [
        {
          "name": "_upc",
          "type": "uint256"
        },
        {
          "name": "_originFarmerID",
          "type": "address"
        },
        {
          "name": "_originFarmName",
          "type": "string"
        },
        {
          "name": "_originFarmInformation",
          "type": "string"
        },
        {
          "name": "_originFarmLatitude",
          "type": "string"
        },
        {
          "name": "_originFarmLongitude",
          "type": "string"
        },
        {
          "name": "_productNotes",
          "type": "string"
        }
      ],
      "name": "harvestItem",
      "outputs": [],
      "payable": false,
      "stateMutability": "nonpayable",
      "type": "function"
    },
    {
      "constant": false,
      "inputs": [
        {
          "name": "_upc",
          "type": "uint256"
        }
      ],
      "name": "processItem",
      "outputs": [],
      "payable": false,
      "stateMutability": "nonpayable",
      "type": "function"
    },
    {
      "constant": false,
      "inputs": [
        {
          "name": "_upc",
          "type": "uint256"
        }
      ],
      "name": "packItem",
      "outputs": [],
      "payable": false,
      "stateMutability": "nonpayable",
      "type": "function"
    },
    {
      "constant": false,
      "inputs": [
        {
          "name": "_upc",
          "type": "uint256"
        },
        {
          "name": "_price",
          "type": "uint256"
        }
      ],
      "name": "sellItem",
      "outputs": [],
      "payable": false,
      "stateMutability": "nonpayable",
      "type": "function"
    },
    {
      "constant": false,
      "inputs": [
        {
          "name": "_upc",
          "type": "uint256"
        }
      ],
      "name": "buyItem",
      "outputs": [],
      "payable": true,
      "stateMutability": "payable",
      "type": "function"
    },
    {
      "constant": false,
      "inputs": [
        {
          "name": "_upc",
          "type": "uint256"
        }
      ],
      "name": "shipItem",
      "outputs": [],
      "payable": false,
      "stateMutability": "nonpayable",
      "type": "function"
    },
    {
      "constant": false,
      "inputs": [
        {
          "name": "_upc",
          "type": "uint256"
        }
      ],
      "name": "receiveItem",
      "outputs": [],
      "payable": false,
      "stateMutability": "nonpayable",
      "type": "function"
    },
    {
      "constant": false,
      "inputs": [
        {
          "name": "_upc",
          "type": "uint256"
        }
      ],
      "name": "purchaseItem",
      "outputs": [],
      "payable": false,
      "stateMutability": "nonpayable",
      "type": "function"
    },
    {
      "constant": true,
      "inputs": [
        {
          "name": "_upc",
          "type": "uint256"
        }
      ],
      "name": "fetchItemBufferOne",
      "outputs": [
        {
          "name": "itemSKU",
          "type": "uint256"
        },
        {
          "name": "itemUPC",
          "type": "uint256"
        },
        {
          "name": "ownerID",
          "type": "address"
        },
        {
          "name": "originFarmerID",
          "type": "address"
        },
        {
          "name": "originFarmName",
          "type": "string"
        },
        {
          "name": "originFarmInformation",
          "type": "string"
        },
        {
          "name": "originFarmLatitude",
          "type": "string"
        },
        {
          "name": "originFarmLongitude",
          "type": "string"
        }
      ],
      "payable": false,
      "stateMutability": "view",
      "type": "function"
    },
    {
      "constant": true,
      "inputs": [
        {
          "name": "_upc",
          "type": "uint256"
        }
      ],
      "name": "fetchItemBufferTwo",
      "outputs": [
        {
          "name": "itemSKU",
          "type": "uint256"
        },
        {
          "name": "itemUPC",
          "type": "uint256"
        },
        {
          "name": "productID",
          "type": "uint256"
        },
        {
          "name": "productNotes",
          "type": "string"
        },
        {
          "name": "productPrice",
          "type": "uint256"
        },
        {
          "name": "itemState",
          "type": "uint8"
        },
        {
          "name": "distributorID",
          "type": "address"
        },
        {
          "name": "retailerID",
          "type": "address"
        },
        {
          "name": "consumerID",
          "type": "address"
        }
      ],
      "payable": false,
      "stateMutability": "view",
      "type": "function"
    }
  ],
  "bytecode": "0x60806040526200001e336200008f640100000000026401000000009004565b6200003833620000f9640100000000026401000000009004565b33600260006101000a81548173ffffffffffffffffffffffffffffffffffffffff021916908373ffffffffffffffffffffffffffffffffffffffff16021790555060016004819055506001600381905550620002bb565b620000b3816000620001636401000000000262002037179091906401000000009004565b8073ffffffffffffffffffffffffffffffffffffffff167f71ae26cad02663e3d92efd6ec56031a80d74a20c0ab4183faa8bf262261c9baa60405160405180910390a250565b6200011d816001620001636401000000000262002037179091906401000000009004565b8073ffffffffffffffffffffffffffffffffffffffff167f28b26e7a3d20aedbc5f8f2ebf7da671c0491723a2b78f47a097b0e46dee0714260405160405180910390a250565b600073ffffffffffffffffffffffffffffffffffffffff168173ffffffffffffffffffffffffffffffffffffffff1614151515620001a057600080fd5b620001bb828262000226640100000000026401000000009004565b151515620001c857600080fd5b60018260000160008373ffffffffffffffffffffffffffffffffffffffff1673ffffffffffffffffffffffffffffffffffffffff16815260200190815260200160002060006101000a81548160ff0219169083151502179055505050565b60008073ffffffffffffffffffffffffffffffffffffffff168273ffffffffffffffffffffffffffffffffffffffff16141515156200026457600080fd5b8260000160008373ffffffffffffffffffffffffffffffffffffffff1673ffffffffffffffffffffffffffffffffffffffff16815260200190815260200160002060009054906101000a900460ff16905092915050565b61226780620002cb6000396000f3006080604052600436106100f1576000357c0100000000000000000000000000000000000000000000000000000000900463ffffffff168063112940f9146100f65780632d9235611461013957806341c0e1b51461017057806349dae766146101875780635da09b88146101b457806361e6982d1461020f57806366225ff91461022657806377c4591314610396578063834ff739146105f45780638ec4f5051461064f578063a26be99914610692578063bdd8a6a8146106bf578063d38ea5bf1461086a578063db0e6a2f14610897578063e7fb74c7146108ae578063f30fc480146108ce578063f61c899a146108fb575b600080fd5b34801561010257600080fd5b50610137600480360381019080803573ffffffffffffffffffffffffffffffffffffffff169060200190929190505050610928565b005b34801561014557600080fd5b5061016e6004803603810190808035906020019092919080359060200190929190505050610948565b005b34801561017c57600080fd5b50610185610a7c565b005b34801561019357600080fd5b506101b260048036038101908080359060200190929190505050610b0f565b005b3480156101c057600080fd5b506101f5600480360381019080803573ffffffffffffffffffffffffffffffffffffffff169060200190929190505050610c27565b604051808215151515815260200191505060405180910390f35b34801561021b57600080fd5b50610224610c44565b005b34801561023257600080fd5b5061025160048036038101908080359060200190929190505050610c4f565b604051808a81526020018981526020018881526020018060200187815260200186600781111561027d57fe5b60ff1681526020018573ffffffffffffffffffffffffffffffffffffffff1673ffffffffffffffffffffffffffffffffffffffff1681526020018473ffffffffffffffffffffffffffffffffffffffff1673ffffffffffffffffffffffffffffffffffffffff1681526020018373ffffffffffffffffffffffffffffffffffffffff1673ffffffffffffffffffffffffffffffffffffffff168152602001828103825288818151815260200191508051906020019080838360005b83811015610353578082015181840152602081019050610338565b50505050905090810190601f1680156103805780820380516001836020036101000a031916815260200191505b509a505050505050505050505060405180910390f35b3480156103a257600080fd5b506103c160048036038101908080359060200190929190505050610e6c565b604051808981526020018881526020018773ffffffffffffffffffffffffffffffffffffffff1673ffffffffffffffffffffffffffffffffffffffff1681526020018673ffffffffffffffffffffffffffffffffffffffff1673ffffffffffffffffffffffffffffffffffffffff16815260200180602001806020018060200180602001858103855289818151815260200191508051906020019080838360005b8381101561047d578082015181840152602081019050610462565b50505050905090810190601f1680156104aa5780820380516001836020036101000a031916815260200191505b50858103845288818151815260200191508051906020019080838360005b838110156104e35780820151818401526020810190506104c8565b50505050905090810190601f1680156105105780820380516001836020036101000a031916815260200191505b50858103835287818151815260200191508051906020019080838360005b8381101561054957808201518184015260208101905061052e565b50505050905090810190601f1680156105765780820380516001836020036101000a031916815260200191505b50858103825286818151815260200191508051906020019080838360005b838110156105af578082015181840152602081019050610594565b50505050905090810190601f1680156105dc5780820380516001836020036101000a031916815260200191505b509c5050505050505050505050505060405180910390f35b34801561060057600080fd5b50610635600480360381019080803573ffffffffffffffffffffffffffffffffffffffff169060200190929190505050611203565b604051808215151515815260200191505060405180910390f35b34801561065b57600080fd5b50610690600480360381019080803573ffffffffffffffffffffffffffffffffffffffff169060200190929190505050611220565b005b34801561069e57600080fd5b506106bd60048036038101908080359060200190929190505050611240565b005b3480156106cb57600080fd5b5061086860048036038101908080359060200190929190803573ffffffffffffffffffffffffffffffffffffffff169060200190929190803590602001908201803590602001908080601f0160208091040260200160405190810160405280939291908181526020018383808284378201915050505050509192919290803590602001908201803590602001908080601f0160208091040260200160405190810160405280939291908181526020018383808284378201915050505050509192919290803590602001908201803590602001908080601f0160208091040260200160405190810160405280939291908181526020018383808284378201915050505050509192919290803590602001908201803590602001908080601f0160208091040260200160405190810160405280939291908181526020018383808284378201915050505050509192919290803590602001908201803590602001908080601f01602080910402602001604051908101604052809392919081815260200183838082843782019150505050505091929192905050506113ba565b005b34801561087657600080fd5b50610895600480360381019080803590602001909291905050506117af565b005b3480156108a357600080fd5b506108ac611929565b005b6108cc60048036038101908080359060200190929190505050611934565b005b3480156108da57600080fd5b506108f960048036038101908080359060200190929190505050611bf6565b005b34801561090757600080fd5b5061092660048036038101908080359060200190929190505050611d0e565b005b61093133611203565b151561093c57600080fd5b61094581611e3b565b50565b816002600781111561095657fe5b60056000838152602001908152602001600020600b0160009054906101000a900460ff16600781111561098557fe5b14151561099157600080fd5b600260009054906101000a900473ffffffffffffffffffffffffffffffffffffffff1673ffffffffffffffffffffffffffffffffffffffff163373ffffffffffffffffffffffffffffffffffffffff161415156109ed57600080fd5b600360056000858152602001908152602001600020600b0160006101000a81548160ff02191690836007811115610a2057fe5b02179055508160056000858152602001908152602001600020600a01819055507fa96ae0fc3224ebd79eebfe54bd130cc9cb94416cddd1f2386115e00b72532468836040518082815260200191505060405180910390a1505050565b600260009054906101000a900473ffffffffffffffffffffffffffffffffffffffff1673ffffffffffffffffffffffffffffffffffffffff163373ffffffffffffffffffffffffffffffffffffffff161415610b0d57600260009054906101000a900473ffffffffffffffffffffffffffffffffffffffff1673ffffffffffffffffffffffffffffffffffffffff16ff5b565b8060006007811115610b1d57fe5b60056000838152602001908152602001600020600b0160009054906101000a900460ff166007811115610b4c57fe5b141515610b5857600080fd5b600260009054906101000a900473ffffffffffffffffffffffffffffffffffffffff1673ffffffffffffffffffffffffffffffffffffffff163373ffffffffffffffffffffffffffffffffffffffff16141515610bb457600080fd5b600160056000848152602001908152602001600020600b0160006101000a81548160ff02191690836007811115610be757fe5b02179055507f5afe3b1bf87069693c075da5c22a98d63d1aef98a30dbbe538d0781a98b77ee5826040518082815260200191505060405180910390a15050565b6000610c3d826000611e9590919063ffffffff16565b9050919050565b610c4d33611f29565b565b600080600060606000806000806000600560008b8152602001908152602001600020600001549850600560008b8152602001908152602001600020600101549750600560008b8152602001908152602001600020600801549650600560008b81526020019081526020016000206009018054600181600116156101000203166002900480601f016020809104026020016040519081016040528092919081815260200182805460018160011615610100020316600290048015610d535780601f10610d2857610100808354040283529160200191610d53565b820191906000526020600020905b815481529060010190602001808311610d3657829003601f168201915b50505050509550600560008b8152602001908152602001600020600a01549450600560008b8152602001908152602001600020600b0160009054906101000a900460ff169350600560008b8152602001908152602001600020600b0160019054906101000a900473ffffffffffffffffffffffffffffffffffffffff169250600560008b8152602001908152602001600020600c0160009054906101000a900473ffffffffffffffffffffffffffffffffffffffff169150600560008b8152602001908152602001600020600d0160009054906101000a900473ffffffffffffffffffffffffffffffffffffffff1690508888888888888888889850985098509850985098509850985098509193959799909294969850565b600080600080606080606080600560008a8152602001908152602001600020600001549750600560008a8152602001908152602001600020600101549650600560008a815260200190815260200160002060020160009054906101000a900473ffffffffffffffffffffffffffffffffffffffff169550600560008a815260200190815260200160002060030160009054906101000a900473ffffffffffffffffffffffffffffffffffffffff169450600560008a81526020019081526020016000206004018054600181600116156101000203166002900480601f016020809104026020016040519081016040528092919081815260200182805460018160011615610100020316600290048015610fc65780601f10610f9b57610100808354040283529160200191610fc6565b820191906000526020600020905b815481529060010190602001808311610fa957829003601f168201915b50505050509350600560008a81526020019081526020016000206005018054600181600116156101000203166002900480601f0160208091040260200160405190810160405280929190818152602001828054600181600116156101000203166002900480156110775780601f1061104c57610100808354040283529160200191611077565b820191906000526020600020905b81548152906001019060200180831161105a57829003601f168201915b50505050509250600560008a81526020019081526020016000206006018054600181600116156101000203166002900480601f0160208091040260200160405190810160405280929190818152602001828054600181600116156101000203166002900480156111285780601f106110fd57610100808354040283529160200191611128565b820191906000526020600020905b81548152906001019060200180831161110b57829003601f168201915b50505050509150600560008a81526020019081526020016000206007018054600181600116156101000203166002900480601f0160208091040260200160405190810160405280929190818152602001828054600181600116156101000203166002900480156111d95780601f106111ae576101008083540402835291602001916111d9565b820191906000526020600020905b8154815290600101906020018083116111bc57829003601f168201915b50505050509050878787878787878797509750975097509750975097509750919395975091939597565b6000611219826001611e9590919063ffffffff16565b9050919050565b61122933610c27565b151561123457600080fd5b61123d81611f83565b50565b806005600781111561124e57fe5b60056000838152602001908152602001600020600b0160009054906101000a900460ff16600781111561127d57fe5b14151561128957600080fd5b61129233610c27565b151561129d57600080fd5b336005600084815260200190815260200160002060020160006101000a81548173ffffffffffffffffffffffffffffffffffffffff021916908373ffffffffffffffffffffffffffffffffffffffff1602179055503360056000848152602001908152602001600020600c0160006101000a81548173ffffffffffffffffffffffffffffffffffffffff021916908373ffffffffffffffffffffffffffffffffffffffff160217905550600660056000848152602001908152602001600020600b0160006101000a81548160ff0219169083600781111561137a57fe5b02179055507fa8142743f8f70a4c26f3691cf4ed59718381fb2f18070ec52be1f1022d855557826040518082815260200191505060405180910390a15050565b600260009054906101000a900473ffffffffffffffffffffffffffffffffffffffff1673ffffffffffffffffffffffffffffffffffffffff163373ffffffffffffffffffffffffffffffffffffffff1614151561141657600080fd5b6101e06040519081016040528060045481526020018881526020013373ffffffffffffffffffffffffffffffffffffffff1681526020018773ffffffffffffffffffffffffffffffffffffffff1681526020018681526020018581526020018481526020018381526020018860045401815260200182815260200160008152602001600060078111156114a557fe5b8152602001600073ffffffffffffffffffffffffffffffffffffffff168152602001600073ffffffffffffffffffffffffffffffffffffffff168152602001600073ffffffffffffffffffffffffffffffffffffffff16815250600560006004548152602001908152602001600020600082015181600001556020820151816001015560408201518160020160006101000a81548173ffffffffffffffffffffffffffffffffffffffff021916908373ffffffffffffffffffffffffffffffffffffffff16021790555060608201518160030160006101000a81548173ffffffffffffffffffffffffffffffffffffffff021916908373ffffffffffffffffffffffffffffffffffffffff16021790555060808201518160040190805190602001906115d2929190612196565b5060a08201518160050190805190602001906115ef929190612196565b5060c082015181600601908051906020019061160c929190612196565b5060e0820151816007019080519060200190611629929190612196565b506101008201518160080155610120820151816009019080519060200190611652929190612196565b5061014082015181600a015561016082015181600b0160006101000a81548160ff0219169083600781111561168357fe5b021790555061018082015181600b0160016101000a81548173ffffffffffffffffffffffffffffffffffffffff021916908373ffffffffffffffffffffffffffffffffffffffff1602179055506101a082015181600c0160006101000a81548173ffffffffffffffffffffffffffffffffffffffff021916908373ffffffffffffffffffffffffffffffffffffffff1602179055506101c082015181600d0160006101000a81548173ffffffffffffffffffffffffffffffffffffffff021916908373ffffffffffffffffffffffffffffffffffffffff1602179055509050506001600454016004819055507f8e55ccfc9778ff8eba1646d765cf1982537ce0f9257054a17b48aad745250183876040518082815260200191505060405180910390a150505050505050565b80600660078111156117bd57fe5b60056000838152602001908152602001600020600b0160009054906101000a900460ff1660078111156117ec57fe5b1415156117f857600080fd5b61180133611203565b151561180c57600080fd5b336005600084815260200190815260200160002060020160006101000a81548173ffffffffffffffffffffffffffffffffffffffff021916908373ffffffffffffffffffffffffffffffffffffffff1602179055503360056000848152602001908152602001600020600d0160006101000a81548173ffffffffffffffffffffffffffffffffffffffff021916908373ffffffffffffffffffffffffffffffffffffffff160217905550600760056000848152602001908152602001600020600b0160006101000a81548160ff021916908360078111156118e957fe5b02179055507f653d56639fee6b566a5c804764e9689de38645f0b733df89a36a1b7b42173dd8826040518082815260200191505060405180910390a15050565b61193233611fdd565b565b806003600781111561194257fe5b60056000838152602001908152602001600020600b0160009054906101000a900460ff16600781111561197157fe5b14151561197d57600080fd5b60056000838152602001908152602001600020600a01548034101515156119a357600080fd5b82600080336005600088815260200190815260200160002060020160006101000a81548173ffffffffffffffffffffffffffffffffffffffff021916908373ffffffffffffffffffffffffffffffffffffffff1602179055503360056000888152602001908152602001600020600b0160016101000a81548173ffffffffffffffffffffffffffffffffffffffff021916908373ffffffffffffffffffffffffffffffffffffffff160217905550600460056000888152602001908152602001600020600b0160006101000a81548160ff02191690836007811115611a8457fe5b02179055506005600087815260200190815260200160002060030160009054906101000a900473ffffffffffffffffffffffffffffffffffffffff1673ffffffffffffffffffffffffffffffffffffffff166108fc60056000898152602001908152602001600020600a01549081150290604051600060405180830381858888f19350505050158015611b1b573d6000803e3d6000fd5b507f92f64ca637d023f354075a4be751b169c1a8a9ccb6d33cdd0cb3520543995727866040518082815260200191505060405180910390a160056000848152602001908152602001600020600a01549150813403905060056000848152602001908152602001600020600d0160009054906101000a900473ffffffffffffffffffffffffffffffffffffffff1673ffffffffffffffffffffffffffffffffffffffff166108fc829081150290604051600060405180830381858888f19350505050158015611bed573d6000803e3d6000fd5b50505050505050565b8060016007811115611c0457fe5b60056000838152602001908152602001600020600b0160009054906101000a900460ff166007811115611c3357fe5b141515611c3f57600080fd5b600260009054906101000a900473ffffffffffffffffffffffffffffffffffffffff1673ffffffffffffffffffffffffffffffffffffffff163373ffffffffffffffffffffffffffffffffffffffff16141515611c9b57600080fd5b600260056000848152602001908152602001600020600b0160006101000a81548160ff02191690836007811115611cce57fe5b02179055507f9b3b66e2380b690bae22c73ef1428fb0c91e72fe14a4b6defa13035214187aff826040518082815260200191505060405180910390a15050565b8060046007811115611d1c57fe5b60056000838152602001908152602001600020600b0160009054906101000a900460ff166007811115611d4b57fe5b141515611d5757600080fd5b60056000838152602001908152602001600020600b0160019054906101000a900473ffffffffffffffffffffffffffffffffffffffff168073ffffffffffffffffffffffffffffffffffffffff163373ffffffffffffffffffffffffffffffffffffffff16141515611dc857600080fd5b6005806000858152602001908152602001600020600b0160006101000a81548160ff02191690836007811115611dfa57fe5b02179055507ff00b9a5725b80c54016f42114f6ed7792d22eecb116011c4afac29c57bef6c95836040518082815260200191505060405180910390a1505050565b611e4f81600161203790919063ffffffff16565b8073ffffffffffffffffffffffffffffffffffffffff167f28b26e7a3d20aedbc5f8f2ebf7da671c0491723a2b78f47a097b0e46dee0714260405160405180910390a250565b60008073ffffffffffffffffffffffffffffffffffffffff168273ffffffffffffffffffffffffffffffffffffffff1614151515611ed257600080fd5b8260000160008373ffffffffffffffffffffffffffffffffffffffff1673ffffffffffffffffffffffffffffffffffffffff16815260200190815260200160002060009054906101000a900460ff16905092915050565b611f3d8160016120e790919063ffffffff16565b8073ffffffffffffffffffffffffffffffffffffffff167fe3f5ed5f263f1f01764a96edfc7d025f511ec5f7d180e8816908b78bcf74f09860405160405180910390a250565b611f9781600061203790919063ffffffff16565b8073ffffffffffffffffffffffffffffffffffffffff167f71ae26cad02663e3d92efd6ec56031a80d74a20c0ab4183faa8bf262261c9baa60405160405180910390a250565b611ff18160006120e790919063ffffffff16565b8073ffffffffffffffffffffffffffffffffffffffff167fdb7176e79cffef81cb01767dd0447a0b24bb72ca9778d4b245581086b2a7e6db60405160405180910390a250565b600073ffffffffffffffffffffffffffffffffffffffff168173ffffffffffffffffffffffffffffffffffffffff161415151561207357600080fd5b61207d8282611e95565b15151561208957600080fd5b60018260000160008373ffffffffffffffffffffffffffffffffffffffff1673ffffffffffffffffffffffffffffffffffffffff16815260200190815260200160002060006101000a81548160ff0219169083151502179055505050565b600073ffffffffffffffffffffffffffffffffffffffff168173ffffffffffffffffffffffffffffffffffffffff161415151561212357600080fd5b61212d8282611e95565b151561213857600080fd5b60008260000160008373ffffffffffffffffffffffffffffffffffffffff1673ffffffffffffffffffffffffffffffffffffffff16815260200190815260200160002060006101000a81548160ff0219169083151502179055505050565b828054600181600116156101000203166002900490600052602060002090601f016020900481019282601f106121d757805160ff1916838001178555612205565b82800160010185558215612205579182015b828111156122045782518255916020019190600101906121e9565b5b5090506122129190612216565b5090565b61223891905b8082111561223457600081600090555060010161221c565b5090565b905600a165627a7a723058207ed03e76a56e060c5b448fcec84da334f7a9107b2cd562705681dc613399f5fb0029",
  "source": "pragma solidity ^0.4.24;\r\n\r\nimport \"../coffeeaccesscontrol/RetailerRole.sol\";\r\nimport \"../coffeeaccesscontrol/ConsumerRole.sol\";\r\n\r\n// Define a contract 'Supplychain'\r\ncontract SupplyChain is RetailerRole, ConsumerRole {\r\n\r\n  // Define 'owner'\r\n  address owner;\r\n\r\n  // Define a variable called 'upc' for Universal Product Code (UPC)\r\n  uint  upc;\r\n\r\n  // Define a variable called 'sku' for Stock Keeping Unit (SKU)\r\n  uint  sku;\r\n\r\n  // Define a public mapping 'items' that maps the UPC to an Item.\r\n  mapping (uint => Item) items;\r\n\r\n  // Define a public mapping 'itemsHistory' that maps the UPC to an array of TxHash, \r\n  // that track its journey through the supply chain -- to be sent from DApp.\r\n  mapping (uint => string[]) itemsHistory;\r\n  \r\n  // Define enum 'State' with the following values:\r\n  enum State \r\n  { \r\n    Harvested,  // 0\r\n    Processed,  // 1\r\n    Packed,     // 2\r\n    ForSale,    // 3\r\n    Sold,       // 4\r\n    Shipped,    // 5\r\n    Received,   // 6\r\n    Purchased   // 7\r\n    }\r\n\r\n  State constant defaultState = State.Harvested;\r\n\r\n  // Define a struct 'Item' with the following fields:\r\n  struct Item {\r\n    uint    sku;  // Stock Keeping Unit (SKU)\r\n    uint    upc; // Universal Product Code (UPC), generated by the Farmer, goes on the package, can be verified by the Consumer\r\n    address ownerID;  // Metamask-Ethereum address of the current owner as the product moves through 8 stages\r\n    address originFarmerID; // Metamask-Ethereum address of the Farmer\r\n    string  originFarmName; // Farmer Name\r\n    string  originFarmInformation;  // Farmer Information\r\n    string  originFarmLatitude; // Farm Latitude\r\n    string  originFarmLongitude;  // Farm Longitude\r\n    uint    productID;  // Product ID potentially a combination of upc + sku\r\n    string  productNotes; // Product Notes\r\n    uint    productPrice; // Product Price\r\n    State   itemState;  // Product State as represented in the enum above\r\n    address distributorID;  // Metamask-Ethereum address of the Distributor\r\n    address retailerID; // Metamask-Ethereum address of the Retailer\r\n    address consumerID; // Metamask-Ethereum address of the Consumer\r\n  }\r\n\r\n  // Define 8 events with the same 8 state values and accept 'upc' as input argument\r\n  event Harvested(uint upc);\r\n  event Processed(uint upc);\r\n  event Packed(uint upc);\r\n  event ForSale(uint upc);\r\n  event Sold(uint upc);\r\n  event Shipped(uint upc);\r\n  event Received(uint upc);\r\n  event Purchased(uint upc);\r\n\r\n  // Define a modifer that checks to see if msg.sender == owner of the contract\r\n  modifier onlyOwner() {\r\n    require(msg.sender == owner);\r\n    _;\r\n  }\r\n\r\n  // Define a modifer that verifies the Caller\r\n  modifier verifyCaller (address _address) {\r\n    require(msg.sender == _address); \r\n    _;\r\n  }\r\n\r\n  // Define a modifier that checks if the paid amount is sufficient to cover the price\r\n  modifier paidEnough(uint _price) { \r\n    require(msg.value >= _price); \r\n    _;\r\n  }\r\n  \r\n  // Define a modifier that checks the price and refunds the remaining balance\r\n  modifier checkValue(uint _upc) {\r\n    _;\r\n    uint _price = items[_upc].productPrice;\r\n    uint amountToReturn = msg.value - _price;\r\n    items[_upc].consumerID.transfer(amountToReturn);\r\n  }\r\n\r\n  // Define a modifier that checks if an item.state of a upc is Harvested\r\n  modifier harvested(uint _upc) {\r\n    require(items[_upc].itemState == State.Harvested);\r\n    _;\r\n  }\r\n\r\n  // Define a modifier that checks if an item.state of a upc is Processed\r\n  modifier processed(uint _upc) {\r\n    require(items[_upc].itemState == State.Processed);\r\n    _;\r\n  }\r\n  \r\n  // Define a modifier that checks if an item.state of a upc is Packed\r\n  modifier packed(uint _upc) {\r\n    require(items[_upc].itemState == State.Packed);\r\n    _;\r\n  }\r\n\r\n  // Define a modifier that checks if an item.state of a upc is ForSale\r\n  modifier forSale(uint _upc) {\r\n    require(items[_upc].itemState == State.ForSale);\r\n    _;\r\n  }\r\n\r\n  // Define a modifier that checks if an item.state of a upc is Sold\r\n  modifier sold(uint _upc) {\r\n    require(items[_upc].itemState == State.Sold);\r\n    _;\r\n  }\r\n  \r\n  // Define a modifier that checks if an item.state of a upc is Shipped\r\n  modifier shipped(uint _upc) {\r\n    require(items[_upc].itemState == State.Shipped);\r\n    _;\r\n  }\r\n\r\n  // Define a modifier that checks if an item.state of a upc is Received\r\n  modifier received(uint _upc) {\r\n    require(items[_upc].itemState == State.Received);\r\n    _;\r\n  }\r\n\r\n  // Define a modifier that checks if an item.state of a upc is Purchased\r\n  modifier purchased(uint _upc) {\r\n    require(items[_upc].itemState == State.Purchased);\r\n    _;\r\n  }\r\n\r\n  // In the constructor set 'owner' to the address that instantiated the contract\r\n  // and set 'sku' to 1\r\n  // and set 'upc' to 1\r\n  constructor() public payable {\r\n    owner = msg.sender;\r\n    sku = 1;\r\n    upc = 1;\r\n  }\r\n\r\n  // Define a function 'kill' if required\r\n  function kill() public {\r\n    if (msg.sender == owner) {\r\n      selfdestruct(owner);\r\n    }\r\n  }\r\n\r\n  // Define a function 'harvestItem' that allows a farmer to mark an item 'Harvested'\r\n  function harvestItem(uint _upc, address _originFarmerID, string _originFarmName, string _originFarmInformation, string  _originFarmLatitude, string  _originFarmLongitude, string  _productNotes) onlyOwner public \r\n  {\r\n    // Add the new item as part of Harvest\r\n    items[sku] = Item({sku: sku, upc: _upc, ownerID: msg.sender, originFarmerID: _originFarmerID, originFarmName: _originFarmName, \r\n                       originFarmInformation: _originFarmInformation, originFarmLatitude: _originFarmLatitude,\r\n                       originFarmLongitude: _originFarmLongitude, productID: sku + _upc, productNotes: _productNotes, productPrice: 0, \r\n                       itemState: State.Harvested, distributorID: 0, retailerID: 0, consumerID: 0});\r\n    // Increment sku\r\n    sku = sku + 1;\r\n    // Emit the appropriate event\r\n    emit Harvested(_upc);\r\n  }\r\n\r\n  // Define a function 'processtItem' that allows a farmer to mark an item 'Processed'\r\n  function processItem(uint _upc) public \r\n  // Call modifier to check if upc has passed previous supply chain stage\r\n  harvested(_upc)\r\n  // Call modifier to verify caller of this function\r\n  onlyOwner\r\n  {\r\n    // Update the appropriate fields\r\n    items[_upc].itemState = State.Processed;\r\n    // Emit the appropriate event\r\n    emit Processed(_upc);\r\n  }\r\n\r\n  // Define a function 'packItem' that allows a farmer to mark an item 'Packed'\r\n  function packItem(uint _upc) public \r\n  // Call modifier to check if upc has passed previous supply chain stage\r\n  processed(_upc)\r\n  // Call modifier to verify caller of this function\r\n  onlyOwner\r\n  {\r\n    // Update the appropriate fields\r\n    items[_upc].itemState = State.Packed;\r\n    // Emit the appropriate event\r\n    emit Packed(_upc);\r\n  }\r\n\r\n  // Define a function 'sellItem' that allows a farmer to mark an item 'ForSale'\r\n  function sellItem(uint _upc, uint _price) public \r\n  // Call modifier to check if upc has passed previous supply chain stage\r\n  packed(_upc)\r\n  // Call modifier to verify caller of this function\r\n  onlyOwner\r\n  {\r\n    // Update the appropriate fields\r\n    items[_upc].itemState = State.ForSale;\r\n    items[_upc].productPrice = _price;\r\n    // Emit the appropriate event\r\n    emit ForSale(_upc);\r\n  }\r\n\r\n  // Define a function 'buyItem' that allows the disributor to mark an item 'Sold'\r\n  // Use the above defined modifiers to check if the item is available for sale, if the buyer has paid enough, \r\n  // and any excess ether sent is refunded back to the buyer\r\n  function buyItem(uint _upc) public payable \r\n    // Call modifier to check if upc has passed previous supply chain stage\r\n    forSale(_upc)\r\n    // Call modifer to check if buyer has paid enough\r\n    paidEnough(items[_upc].productPrice)\r\n    // Call modifer to send any excess ether back to buyer\r\n    checkValue(_upc)\r\n    {\r\n    // Update the appropriate fields - ownerID, distributorID, itemState\r\n        items[_upc].ownerID = msg.sender;\r\n        items[_upc].distributorID = msg.sender;\r\n        items[_upc].itemState = State.Sold;\r\n    // Transfer money to farmer\r\n        items[_upc].originFarmerID.transfer(items[_upc].productPrice);\r\n    // emit the appropriate event\r\n        emit Sold(_upc);\r\n  }\r\n\r\n  // Define a function 'shipItem' that allows the distributor to mark an item 'Shipped'\r\n  // Use the above modifers to check if the item is sold\r\n  function shipItem(uint _upc) public \r\n    // Call modifier to check if upc has passed previous supply chain stage\r\n    sold(_upc)\r\n    // Call modifier to verify caller of this function\r\n    verifyCaller(items[_upc].distributorID)\r\n    {\r\n    // Update the appropriate fields\r\n        items[_upc].itemState = State.Shipped;\r\n    // Emit the appropriate event\r\n        emit Shipped(_upc);\r\n  }\r\n\r\n  // Define a function 'receiveItem' that allows the retailer to mark an item 'Received'\r\n  // Use the above modifiers to check if the item is shipped\r\n  function receiveItem(uint _upc) public \r\n    // Call modifier to check if upc has passed previous supply chain stage\r\n    shipped(_upc)\r\n    // Access Control List enforced by calling Smart Contract / DApp\r\n    onlyRetailer\r\n    {\r\n    // Update the appropriate fields - ownerID, retailerID, itemState\r\n        items[_upc].ownerID = msg.sender;\r\n        items[_upc].retailerID = msg.sender;\r\n        items[_upc].itemState = State.Received;\r\n    \r\n    // Emit the appropriate event\r\n        emit Received(_upc);\r\n  }\r\n\r\n  // Define a function 'purchaseItem' that allows the consumer to mark an item 'Purchased'\r\n  // Use the above modifiers to check if the item is received\r\n  function purchaseItem(uint _upc) public \r\n    // Call modifier to check if upc has passed previous supply chain stage\r\n    received(_upc)\r\n    // Access Control List enforced by calling Smart Contract / DApp\r\n    onlyConsumer\r\n    {\r\n    // Update the appropriate fields - ownerID, consumerID, itemState\r\n        items[_upc].ownerID = msg.sender;\r\n        items[_upc].consumerID = msg.sender;\r\n        items[_upc].itemState = State.Purchased;\r\n    \r\n    // Emit the appropriate event\r\n        emit Purchased(_upc);\r\n  }\r\n\r\n  // Define a function 'fetchItemBufferOne' that fetches the data\r\n  function fetchItemBufferOne(uint _upc) public view returns \r\n  (\r\n  uint    itemSKU,\r\n  uint    itemUPC,\r\n  address ownerID,\r\n  address originFarmerID,\r\n  string  originFarmName,\r\n  string  originFarmInformation,\r\n  string  originFarmLatitude,\r\n  string  originFarmLongitude\r\n  ) \r\n  {\r\n  // Assign values to the 8 parameters\r\n  itemSKU = items[_upc].sku;\r\n  itemUPC = items[_upc].upc;\r\n  ownerID = items[_upc].ownerID;\r\n  originFarmerID = items[_upc].originFarmerID;\r\n  originFarmName = items[_upc].originFarmName;\r\n  originFarmInformation = items[_upc].originFarmInformation;\r\n  originFarmLatitude = items[_upc].originFarmLatitude;\r\n  originFarmLongitude = items[_upc].originFarmLongitude;\r\n\r\n  return \r\n  (\r\n  itemSKU,\r\n  itemUPC,\r\n  ownerID,\r\n  originFarmerID,\r\n  originFarmName,\r\n  originFarmInformation,\r\n  originFarmLatitude,\r\n  originFarmLongitude\r\n  );\r\n  }\r\n\r\n  // Define a function 'fetchItemBufferTwo' that fetches the data\r\n  function fetchItemBufferTwo(uint _upc) public view returns \r\n  (\r\n  uint    itemSKU,\r\n  uint    itemUPC,\r\n  uint    productID,\r\n  string  productNotes,\r\n  uint    productPrice,\r\n  State   itemState,\r\n  address distributorID,\r\n  address retailerID,\r\n  address consumerID\r\n  ) \r\n  {\r\n    // Assign values to the 9 parameters\r\n  itemSKU = items[_upc].sku;\r\n  itemUPC = items[_upc].upc;\r\n  productID = items[_upc].productID;\r\n  productNotes = items[_upc].productNotes;\r\n  productPrice = items[_upc].productPrice;\r\n  itemState = items[_upc].itemState;\r\n  distributorID = items[_upc].distributorID;\r\n  retailerID = items[_upc].retailerID;\r\n  consumerID = items[_upc].consumerID;\r\n    \r\n  return \r\n  (\r\n  itemSKU,\r\n  itemUPC,\r\n  productID,\r\n  productNotes,\r\n  productPrice,\r\n  itemState,\r\n  distributorID,\r\n  retailerID,\r\n  consumerID\r\n  );\r\n  }\r\n}\r\n",
  "sourcePath": "C:\\Users\\Acer\\Desktop\\nd1309-Project-6b-Example-Template\\project-6\\contracts\\coffeebase\\SupplyChain.sol",
  "compiler": {
    "name": "solc",
    "version": "0.4.24+commit.e67f0147.Emscripten.clang"
  },
  "schemaVersion": "2.0.1",
  "updatedAt": "2021-07-09T11:08:51.510Z"
}